:100000000C9496010C94DD010C94DD010C94DD013F
:100010000C94DD010C94DD010C94DD010C94DD01E8
:100020000C94DD010C94DD010C94DD1E0C94AF1FCB
:100030000C9453150C94DD010C94DD010C94DD013E
:100040000C94DD010C94DD010C94DD010C94DD01B8
:100050000C94DD010C94A0150C94DD010C94DD01D1
:100060000C94DD010C94DD010C94DD010C94DD0198
:100070000C94DD010C94DD010C94DD010C94DD0188
:100080000C94DD010C94DD010C94DD010C94DD0178
:100090000C94DD010C94DD010C94DD010C94DD0168
:1000A0000C94DD010C94DD010C94DD01CD0ACD0A28
:1000B000FF0AFF0A4C0B6A0B8B0C8B0C750B0A0C9E
:1000C0001B0C1B0C7B0C8B0C8B0C840C2B0D2B0D2D
:1000D0003D0D3D0D340D3D0D3D0D3D0D2B0D2B0DFD
:1000E000390D3D0D3D0D390DB019A619B319FB1988
:1000F000FF19FF19FB19FF19FF19D419FF19DE1990
:10010000E819FF19FF19FF19FF19FB19FF19FF194A
:10011000FB19FF19C119FF19FF19F819F819F81976
:10012000F819F819F819F819F819F819FD19FF193B
:10013000B019A319FF19FF19FF19FF19FF19FF19AA
:10014000FF19FF19FF19FF19FD19FF19FF19FB19F5
:10015000FF19F619F619F619F619F619F619F6191E
:10016000F619F619FD191C2043203B2143203B21A1
:100170008F20B2203B21092118213F00400041007F
:100180004200240025002600380021002200230020
:1001900034021E001F0020002D00270037002D0212
:1001A00033020403300000000C0353006F00790099
:1001B00075007A00000026036100690030003300FA
:1001C0002000440065007300690067006E00200095
:1001D000530074007500640069006F0000000403A0
:1001E000090409023B00020100A0FA090400000111
:1001F00003010100092111010001224000070581CE
:100200000308000A0904010001030000000921118C
:1002100001000122BC000705820320000A12011020
:10022000010000000803A1180001000102030105FC
:10023000010902A10185020901A10005091901298D
:10024000051500250195057501810295017503814C
:10025000010501093009311581257F950275088155
:100260000609381581257F950175088106050C0A58
:1002700038021581257F950175088106C0C00501EA
:100280000980A101850319012AB700150126B700CD
:10029000950175108100C0050C0901A101850419A3
:1002A000012AA002150126A002950175108100C047
:1002B00005010906A1018505050719E029E71500D3
:1002C00025019508750181020507190029EF150020
:1002D000250195F07501810205081901290595058B
:1002E00075019102950175039101C005010906A1EF
:1002F00001050719E029E715002501950875018119
:10030000029501750881010507190029FF150026CE
:10031000FF00950675088100050819012905950556
:1003200075019102950175039101C00011241FBE52
:10033000CFEFDAE0DEBFCDBF04B603FE27C0809169
:10034000620290916302A0916402B09165028730CD
:10035000904BA740B04BD1F410926202109263020E
:10036000109264021092650214BE84B7877F84BF26
:100370000FB6F894A8958091600088618093600022
:10038000109260000FBEE0E0F8E3099511E0A0E0F4
:10039000B1E0E2ECF3E402C005900D92AA38B10797
:1003A000D9F722E0AAE8B1E001C01D92A236B20757
:1003B000E1F70E941B1C0C94DF210C9400000C94AC
:1003C000B7040C94B5040C94E9010C943F0281E04D
:1003D000089581E0089508950C94EB011F93CF9345
:1003E000DF9300D000D01F92CDB7DEB749835A8388
:1003F0006B8330919D0189819A81311114C06623EC
:1004000059F0222349F00E946512182F682F898124
:100410009A810E94101203C00E943A12182F69811B
:100420007A81812F04C00E94651269817A810F90C0
:100430000F900F900F900F90DF91CF911F910C9420
:100440009E02FC01262F408151816281738184814B
:100450000C94EE01CF93DF93EC0160E00E94210247
:10046000BE01DF91CF910C94EC010E949713811192
:1004700002C00E9437140C94DF010C94E10108952E
:1004800081E008950C944002CF93C82F0E94E501AB
:100490008C2F0E944202CF91089508950E94190D59
:1004A0000E944D022FEF84E39CE021508040904059
:1004B000E1F700C000000C94C6150F931F93CF9373
:1004C000DF93EC0161E00E9421028C01BE010E94D9
:1004D000E301882349F1BE01C8010E945E0688231A
:1004E00019F1BE01C8010E94B0068823E9F0BE01DF
:1004F000C8010E94DB078823B9F08A81882369F04C
:1005000001158CE5180731F00E3D1C4531F40E94B1
:1005100037140AC00E944E0207C0CE01DF91CF916E
:100520001F910F910C94E70180E0DF91CF911F9113
:100530000F91089580E090E008950895E72FF0E08E
:1005400095E0899FE00DF11D1124EE0FFF1FEE0FC6
:10055000FF1FE60FF11DEE0FFF1FE658FE4F8591BE
:1005600094910895880F991FFC01EE55FE4F8591D7
:1005700094910895CF93DF930E949E020E94D2032C
:10058000EC018115904508F041C0C11580E4D80701
:1005900008F0D1C0C83ED10510F5C03ED10508F025
:1005A000FDC0C83AD10578F4C53AD10508F0A2C01B
:1005B000C130D10509F4F2C008F4EEC0C430D10551
:1005C00008F0ECC0E9C0CF3BD10508F49BC0C03CAB
:1005D000D10508F4E1C0CE01805C91099EC0C1152F
:1005E00090E2D90758F4C11521E0D20708F0D6C02F
:1005F000C03FD10508F4D0C0D065D0C0C11580E39C
:10060000D80708F08EC0CE019F7087C0C11595E550
:10061000D90708F043C0C11524E5D20708F0A2C0ED
:10062000C11582E5D80708F5C11591E5D90708F08D
:1006300085C0CE0174E0969587957A95E1F7837031
:100640009C2F937021E030E002C0220F331F9A9557
:10065000E2F73C68382BCF70C695C69580E2C89FFC
:10066000E0011124C22BD32B99C09E0123703327A4
:100670008C2F86958695C115D34508F064C0C1E0DE
:10068000D0E002C0CC0FDD1F2A95E2F720E2829F66
:10069000C0011124C82BD92BDC6880C0C11529E505
:1006A000D207A0F4C11588E5D80708F060C0C115CD
:1006B00096E5D90708F070C08C2F0E9466048F71F0
:1006C000C82FD0E0DC2FCC27D06268C0C1152AE546
:1006D000D20708F451C0CE0190568115904208F01F
:1006E0005BC08D2F8F710E946604DD27D0628F71F1
:1006F000D82B54C0C55AD0E0CD5BDE4FC881D0E0C6
:10070000D0644CC0C85AD0E0CC0FDD1FCB5EDE4FAA
:100710000990D881C02DD46441C00E94B202EC017E
:100720003DC0CE019927D3FF03C0EC01D86C36C081
:10073000EC01D06C33C0DF70D06A30C0DC2FCC2726
:10074000C16FD06A2BC0C1E0D0E002C0CC0FDD1F6A
:100750002A95E2F720E2829FC0011124C82BD92BF1
:10076000DA681CC0DC2FCC27C46FD06A17C0DC2F1E
:10077000CC27C06FD06A12C08C2F8F700E94660485
:1007800094E0D695C7959A95E1F7CF70D0E0DC2F2D
:10079000CC27D069C82B02C0C0E0D0E0CE01DF91E9
:1007A000CF9108958238910569F1B0F481339105B4
:1007B00009F46DC048F48932910509F463C08A32A6
:1007C000910509F469C008958533910509F455C070
:1007D00089339105B9F00895833E910569F138F4A4
:1007E000803E9105B1F0823E910509F10895863E63
:1007F0009105A9F1873E9105B9F1843E910509F073
:1008000064C023C02091530220FD4FC021FD4DC084
:1008100008958091530280FD44C08091540280FF6E
:1008200044C08091530284FD42C083EE4DC080914C
:10083000530282FF38C0F5CF8091530282FD33C04E
:100840008091540280FD31C0ECCF8091540281FF31
:1008500032C08091530284FD2AC087EE35C080915A
:10086000530283FF26C0F5CF8091530283FD21C040
:100870008091540281FD1FC0ECCF8091530285FD11
:100880001CC01DC08091530285FD19C016C0809107
:10089000530286FD16C017C08091530286FD13C017
:1008A00010C089E311C082EE0FC080EE0DC080E061
:1008B0000BC086EE09C084EE07C089E205C085E35F
:1008C00003C08AE201C081E390E008959091530251
:1008D00092FF0DC0282F2871283019F4877F84607B
:1008E00006C0282F2471243011F48B7F886093FF79
:1008F0000DC0282F2871283119F4877E846106C025
:10090000282F2471243111F48B7E886120915402A8
:1009100020FF0DC0382F3871383019F4877F81607F
:1009200006C0382F3171313011F48E7F886021FF7D
:100930000DC0282F2871283119F4877E816106C0E7
:10094000282F2171213111F48E7E886194FD877EDC
:100950000895E82FF0E0E65BFD4F8081089508954B
:1009600080EA8A95F1F7089508950C94B4040C94E4
:10097000B404CF93DF93AAE4B1E04FE451E061E027
:1009800070E08D91E82FE295EF70F0E021A18F707B
:10099000EB0102C0CC0FDD1F8A95E2F7CE019C2F40
:1009A0009095922391A392A1892B82A34A175B076A
:1009B00041F7A6E4B1E04AE451E061E070E08D91D6
:1009C000E82FE295EF70F0E021A18F70EB0102C0FB
:1009D000CC0FDD1F8A95E2F7CE019C2F90959223D4
:1009E00091A392A1892B82A34A175B0741F7E5E403
:1009F000F2E0AAE4B2E08AE492E011921D928E172E
:100A00009F07D9F785E00E948F05DF91CF910C9465
:100A100035026F927F928F929F92AF92BF92CF9248
:100A2000DF92EF92FF920F931F93CF93DF938AE4AD
:100A3000882E81E0982E05E412E09AE4A92E92E037
:100A4000B92E712CCC24C394D12CF40181914F0187
:100A5000C82FC295CF70D0E099A18F70760101C0E8
:100A6000EE0C8A95EAF7892F8E2989A38AA16E2C2C
:100A7000609486218AA30E94B004E6E4F1E040E09D
:100A800050E020E03191A32FA295AF70B0E0909696
:100A90008C9190E03F7002C0959587953A95E2F76A
:100AA00080FD07C08C2D042E01C0880F0A94EAF740
:100AB00001C080E0282B4F5F5F4F4430510511F794
:100AC00089A1682269A28AA1E82AEAA2F8018081A4
:100AD000281719F0208381E001C080E0782A0F5F99
:100AE0001F4FA016B10609F0B0CF272D45E06AE4EC
:100AF00072E085E492E00E9490050E943D02872DFD
:100B0000DF91CF911F910F91FF90EF90DF90CF90E9
:100B1000BF90AF909F908F907F906F9008950895B1
:100B2000FF920F931F93CF93DF938C01F62ED72F55
:100B3000C42F222349F081E080938C010E94851507
:100B400090938B0180938A0180918C018823C1F05E
:100B500080918A0190918B010E949115069780F0F7
:100B6000EF2DFD2FD8014C2F50E0CD01801B910BB4
:100B7000841795071CF48D918193F7CF10928C0107
:100B8000DF91CF911F910F91FF900895AF92BF9287
:100B9000CF92DF92EF92FF920F931F93CF93DF9349
:100BA0007C015B01C42FD22FFC0182818823F9F0E4
:100BB00040938F010E94851590938E0180938D0143
:100BC00080E28C0F883008F06EC0C77081E001C0F1
:100BD000880FCA95EAF7DF91CF911F910F91FF908F
:100BE000EF90DF90CF90BF90AF900C94890A8091E6
:100BF0008F01481335C080918D0190918E010E9424
:100C000091156C01B701C5010E94D20FC816D90613
:100C100038F510E21D0FCD17B9F080E28C0F883047
:100C200040F4C77081E001C0880FCA95EAF70E94BE
:100C3000900A183058F581E09D2F977001C0880FF9
:100C40009A95EAF70E94890A802F0E94760A183046
:100C500050F5D77081E001C0880FDA95EAF70AC035
:100C600080E28C0F8830F8F4C77081E001C0880FF3
:100C7000CA95EAF7DF91CF911F910F91FF90EF9006
:100C8000DF90CF90BF90AF900C94900A802FDF91AF
:100C9000CF911F910F91FF90EF90DF90CF90BF9079
:100CA000AF900C94760ADF91CF911F910F91FF9036
:100CB000EF90DF90CF90BF90AF9008950F939C017D
:100CC000CB01233F4CE5340731F188F4283DFCE5A6
:100CD0003F07D9F0293D4CE5340779F1273D3C45E4
:100CE000A9F506E221EE41EE67ED7CE52BC0253F3C
:100CF000FCE53F07E1F0A8F0263F3C4539F507E267
:100D000025EE46EE66EF7CE51DC007E225EE45EEDA
:100D100068ED7CE517C006E221EE40EE63EF7CE56E
:100D200011C007E225EE44EE64EF7CE50BC006E25D
:100D300021EE42EE65EF7CE505C008E221E045EEDC
:100D400069ED7CE50E94C60580E008C0FC01828157
:100D5000882319F010928F0101C081E00F9108954E
:100D6000CF93DF93EC01FB018281882309F41FC13B
:100D7000C230FCE5DF0708F41BC1C6319CE5D9078A
:100D800038F09E012A5F3C452930310508F010C13A
:100D90000E94AA139093540280935302C031ECE551
:100DA000DE0709F4C3C008F041C0C8308CE5D8079D
:100DB00009F49AC0F0F4C430ECE5DE0709F487C00A
:100DC00068F4C2308CE5D80709F477C0C330DC453D
:100DD00009F0E3C080915302826076C0C630ECE532
:100DE000DE0709F46EC008F07BC080915302886072
:100DF0006BC0CC308CE5D80709F485C068F4CA30E4
:100E0000ECE5DE0709F474C008F079C00E94190D02
:100E100080915302806858C0CE308CE5D80709F421
:100E200076C008F07FC0809153028BC0CB3FECE5C9
:100E3000DE0709F44FC018F5C3318CE5D80709F473
:100E40007DC078F4C131ECE5DE0709F473C0C2312E
:100E5000DC4509F0A2C00E94190D809153028F77E2
:100E600033C0C5318CE5D80709F472C008F486C0D8
:100E7000CA3FDC4509F091C0809154023EC0CF3F8B
:100E8000FCE5DF0709F45FC058F4CD3F9CE5D907C6
:100E900009F444C008F43FC08091540282602DC020
:100EA000C130FDE5DF0709F475C008F45DC0C2304C
:100EB000DD4509F072C080E06EC080915302816010
:100EC00003C08091530280618093530266C0809179
:100ED000530211C0809154028260809354025DC01D
:100EE000809153028062F0CF809153028064ECCFF6
:100EF0008091530288608460E7CF8160EECF80915B
:100F000053028E7FE1CF809153028D7FDDCF8091A0
:100F10005302877FD9CF8091540218C08091540228
:100F20008D7FDBCF809153028F7ECECF8091530295
:100F30008F7DCACF809153028F7BC6CF80915302A1
:100F4000877F8B7FC1CF809154028D7F8E7FC5CFED
:100F50008091530282FB222720F991E0922790FB97
:100F600082F990FB83F9B0CF80915402982F90952D
:100F700091708E7F892B90FB81F9AFCF0E94190D64
:100F80008091530287FB222720F991E0922790FB62
:100F900087F99ACF81E00E94391480915302909191
:100FA00054020E94BB130E94190D80E001C081E031
:100FB000DF91CF910895CF93DF9386319C4541F522
:100FC000EB010E94E612982F8A8120910001309156
:100FD0000101882379F09A7A81E009F480E0809316
:100FE0009001911102C069E201C065E3C9010E944C
:100FF000D4140AC080919001811102C069E201C03D
:1010000065E3C9010E94DF140E94341380E001C02F
:1010100081E0DF91CF91089590939601809395019F
:101020000895E0919501F0919601309721F001909B
:10103000F081E02D099480E00895E0919501F09110
:101040009601309799F020911401222359F02091B4
:10105000530227FF07C0DC012C9111962C931197A6
:1010600025E02C930280F381E02D09940895E0910E
:101070009501F0919601309739F022E0DC012C9334
:101080000480F581E02D0994089520919301309119
:1010900094012817390771F090939401809393017C
:1010A000E0919501F0919601309721F00680F7814B
:1010B000E02D099408952091910130919201281713
:1010C000390771F09093920180939101E09195011D
:1010D000F0919601309721F00084F185E02D09947C
:1010E000089585B7806885BF85B7806885BF0895F6
:1010F00008950C9478080C9479080C9478080C9452
:1011000078080E9471080E947D080C947B0881E099
:1011100008950C9487080E947C150E94B9040E94CF
:10112000EA150C947F08AF92BF92CF92DF92EF92B4
:10113000FF920F931F93CF93DF93CDB7DEB72A971C
:101140000FB6F894DEBF0FBECDBF0E9409050E9406
:101150008908811111C08FEF89838A831B820E94C5
:1011600085158160782F9D838C8349815A816B819D
:101170008D810E942B0940C088E9A82E81E0B82EFD
:1011800000E010E0C02E802F0E94A904E82EF50197
:10119000D1905F01D82631F40F5F1F4F0530110544
:1011A00089F7D9CF8091120281FD0E94AF0480E0BF
:1011B000FF24F3949D2D9F21D1F08E83CF82EF20C9
:1011C00081E009F480E088870E9485158160782F8E
:1011D0009A8789874E815F8168858A850E942B095D
:1011E000F801E856FE4F8081F826F08205C08F5F37
:1011F000FF0C8430F9F6D0CF0E9499170E94110895
:10120000909197018917B1F00E941108809397017E
:101210002A960FB6F894DEBF0FBECDBFDF91CF91F7
:101220001F910F91FF90EF90DF90CF90BF90AF9004
:101230000C9444022A960FB6F894DEBF0FBECDBFC1
:10124000DF91CF911F910F91FF90EF90DF90CF90A2
:10125000BF90AF900895CF93DF93CDB7DEB72B97B4
:101260000FB6F894DEBF0FBECDBF4F835887698796
:101270007A878B87DE01119686E0FD0111928A95AF
:10128000E9F785E0FE01379601900D928A95E1F726
:1012900049815A816B817C818D819E810E94D50F0D
:1012A0002B960FB6F894DEBF0FBECDBFDF91CF9166
:1012B0000895FC01808191810E94A7120895CF9327
:1012C000882309F4A9C0C82F8238C1F40E941108EC
:1012D00081FDA2C069E380910001909101010E940B
:1012E000D4140E9434132FEF81EE94E021508040FB
:1012F0009040E1F700C0000069E319C0833801F5B0
:101300000E94110880FD88C063E5809100019091E2
:1013100001010E94D4140E9434132FEF81EE94E057
:10132000215080409040E1F700C0000063E58091CB
:101330000001909101010E94DF14CF910C943413AD
:101340008438C1F40E94110882FD66C067E4809170
:101350000001909101010E94D4140E9434132FEFD8
:1013600081EE94E0215080409040E1F700C0000001
:1013700067E4DDCF8CEF8C0F813AF8F48C2F0E945C
:10138000101A811149C06C2F8091000190910101C8
:101390000E945414882349F06C2F80910001909191
:1013A00001010E94DF140E9434136C2F8091000110
:1013B000909101010E94D414C0CF80E28C0F88303C
:1013C00048F4C77081E001C0880FCA95EAF70E940F
:1013D000E912B3CFEBE5EC0FE33040F4F0E0E35873
:1013E000FE4F808190E0CF910C944508E8E5EC0F2A
:1013F000E73150F4F0E0EE0FFF1FE15BFE4F80811C
:101400009181CF910C945B08C03F30F08C2F0E94EB
:101410008E16CF910C947B17CF910895882309F4F1
:1014200064C0823879F40E94110881FF5EC069E3CC
:1014300080910001909101010E94D4140E94341304
:1014400069E310C08338B1F40E94110880FF4DC0D9
:1014500063E580910001909101010E94D4140E94E3
:10146000341363E580910001909101010E94DF1423
:101470000C943413843879F40E94110882FF35C02B
:1014800067E480910001909101010E94D4140E94B0
:10149000341367E4E7CF9CEF980F913A10F4682F6C
:1014A000E1CF90E2980F983050F4877091E001C03E
:1014B000990F8A95EAF7892F0E94EF12D9CF9BE501
:1014C000980F933020F480E090E00C94450898E564
:1014D000980F973120F480E090E00C945B08803FF7
:1014E00020F00E94F6160C947B170895CF93C82F16
:1014F0000E945F09C93349F42FEF87EE93E0215032
:1015000080409040E1F700C000008C2FCF910C94F8
:101510000E0A882321F00E94E9120C9434130895D6
:10152000882321F00E94EF120C9434130895CF9277
:10153000DF92EF92FF920F931F93CF93DF937C0183
:10154000062FC72FFC01158112951F70D281D11172
:101550000E9406130E94DF12882399F0DD2389F090
:101560008C2F807F803421F080E2800F883048F01B
:1015700082E00E947E130E94DF1291E0D82ED926CD
:1015800001C0D12CCC2EC2948FE0C8228C2D90E0CB
:10159000FC01EA5AFF4F0C9483218C2F807FCF707F
:1015A000882311F0C295C07FDD2399F0CC2309F484
:1015B0008DC180E2800F883010F0011104C08C2FA3
:1015C0000E94E91203C08C2F0E94F9120E9434136A
:1015D0007DC1802F0E940E0ACC2309F49CC180E2B9
:1015E000800F883010F0011104C08C2F0E94EF1280
:1015F00003C08C2F0E94FF120E9434138CC18C2FC9
:10160000807FCF70803211F0C295C07F002319F027
:101610000130C9F022C0DD2371F0112341F01130F7
:1016200031F40E9419138C2B0E94211374C10E9463
:1016300019138C2B1DC0112319F0113009F46BC143
:101640000E942A1325C0DD2321F0163008F063C163
:101650000EC0153008F05FC11BC0DD2361F01123FF
:1016600031F0F701858180FF31C18F7085838C2F28
:101670000E94890A50C1112359F0093309F037C17A
:10168000FFEF27EE83E0F15020408040E1F72DC1CD
:101690008C2F0E94900A3FC18C2F8695869583706F
:1016A00019F0813061F037C1DD2321F0802F9C2FAC
:1016B000937002C080E090E00E94450834C1DD23B1
:1016C00021F0802F9C2F937002C080E090E00E9458
:1016D0005B0829C1802FDD2319F00E948E1602C0FD
:1016E0000E94F6160E947B171EC18C2F837009F092
:1016F00045C0D11114C1402F429546954770440F03
:10170000440F602F6F70862F90E0A0E0B0E0042EB1
:1017100004C0880F991FAA1FBB1F0A94D2F704FFA9
:1017200010C00FE010E020E030E004C0000F111FF7
:10173000221F331F4A95D2F70095109520953095BA
:1017400003C000E010E09801C695C695C370BC01C7
:10175000CD01602B712B822B932BC23049F058F4B2
:10176000C13019F00E942611DAC00E941411D7C0AE
:101770000E943811D4C00E941211D1C0DD2319F08B
:101780008C2F817001C08695882309F4C8C0402F32
:10179000429546954770440F440F602F6F70862F17
:1017A00090E0A0E0B0E0042E04C0880F991FAA1FAB
:1017B000BB1F0A94D2F704FF10C00FE010E020E036
:1017C00030E004C0000F111F221F331F4A95D2F7CB
:1017D000009510952095309503C000E010E0980129
:1017E000C695C695C370BC01CD01602B712B822BB1
:1017F000932BC23049F058F4C13019F00E94EB111C
:101800008EC00E94D9118BC00E94FD1188C00E9419
:101810004C1185C0CF70DD2339F08C2F0E947211DE
:10182000802F0E94890A7BC0802F0E94900A8C2FF3
:101830000E94931174C0023F01F128F4003F41F06F
:10184000013FA1F03FC0033FF9F0043F39F13AC036
:10185000DD2341F0153008F05EC08C2F8F710E949F
:10186000B81159C0163008F056C0F7CFDD2339F053
:101870008C2F8F710E9472114EC0DD23C9F38C2F03
:101880008F710E94931147C0DD2329F08C2F8F7137
:101890000E945D1140C00E9458113DC0DD2349F0F7
:1018A000CF718C2F0E94721163E08C2F0E946913FC
:1018B00032C081E00E947E13123068F182E00E9403
:1018C0007E1329C0DD2331F0112391F2802F0E9475
:1018D0005F0921C0112399F2093349F49FEFE7EE24
:1018E000F3E09150E040F040E1F700C00000802FAD
:1018F0000E940E0A10C04C2F4F70602FC7010E942B
:101900009A020E9483100FC04C2F4F70602FC701A6
:101910000E949D0208C088EF8C0D843020F40E9444
:1019200011080E944402DD20C9F00E94DB1280FDF4
:1019300015C0F70112820E94D5120E947211C701D0
:101940000E94CF0C0E94D512DF91CF911F910F9171
:10195000FF90EF90DF90CF900C949311DF91CF9197
:101960001F910F91FF90EF90DF90CF9008950F930C
:101970001F93CF93DF93EC01688179818A810E9464
:10198000B2128C010E940F120E940011B801CE0108
:101990000E94970ADF91CF911F910F910895CF93E5
:1019A000DF93EC01988189812B813C81232B31F0DD
:1019B0008F3F31F481E09F3F19F403C081E001C003
:1019C00080E080FD19C0CE010E945D0281110CC033
:1019D0000E94DF12882381F08A81882369F082E0E7
:1019E000DF91CF910C947E13CE010E94B70CCE01F3
:1019F000DF91CF910C942A02DF91CF9108950E943C
:101A000006130E9416130E9434130E94AC180E9401
:101A10007B1780E090E00E94450880E090E00C9405
:101A20005B0880910001909101010E94EA140C94DE
:101A3000FF0C0E94F6120C94110DE92FE295EF7045
:101A40004E2F50E0FA013297EE30F105B0F4EA592A
:101A5000FF4F0C948321803F91F018F4883E68F486
:101A60000EC0843F51F40BC0883E48F0813F29F4FA
:101A700006C093FB882780F9089580E0089581E0EF
:101A800008950E94A7120E941D0D0895CF93DF9321
:101A900000D000D01F92CDB7DEB70F900F900F90FF
:101AA0000F900F90DF91CF910895CF93DF9300D0E7
:101AB00000D000D0CDB7DEB726960FB6F894DEBFC3
:101AC0000FBECDBFDF91CF9108951F93CF93DF93CA
:101AD000C0919E0116E080919F01C81799F0D0E057
:101AE0001C9FF0011D9FF00D1124E056FE4F408118
:101AF000518162817381848195810E94550D219667
:101B0000C770E9CFDF91CF911F9108954091D00127
:101B10005091D1016091D2017091D3018091D40193
:101B20009091D5010C94550D0F931F93CF93DF9394
:101B30008091D50182958F7009F05DC08091D201AE
:101B4000882309F458C080919E0110919F016091F3
:101B5000D0017091D101C091D301D091D40191E015
:101B60006F3F09F090E0292F06E0811709F443C088
:101B7000209721F07F3F21F030E003C031E001C029
:101B8000322F90E030FD34C0089FF001099FF00D26
:101B90001124DF01A056BE4F11963C9111973713C7
:101BA00027C03C91361324C012963C9112973111F4
:101BB0001FC013964D915C9114974C1B5D0B483CD4
:101BC0005105B0F48091D5018F7080618093D5016B
:101BD000EB55FE4F80818F708061808380ED91E0B6
:101BE0000E94CF0CDF91CF911F910F910C94650D46
:101BF00001968770BACFDF91CF911F910F91089511
:101C00009F92AF92BF92CF92DF92EF92FF920F938B
:101C10001F93CF93DF93CDB7DEB761970FB6F894DC
:101C2000DEBF0FBECDBF8C0185E0F801DE011D9641
:101C300001900D928A95E1F7F80140815181E2808F
:101C40009091D0016091D1012091D3013091D401C4
:101C50002115310531F06F3F31F481E09F3F19F4D8
:101C600003C081E001C080E0F82FF1709F2E80FD5D
:101C700046C1F801A380B48080EDC82E81E0D82E43
:101C8000F090D201F501E21BF30BFF2009F4DFC055
:101C90008091D501E83CF10508F09BC0282F207FFA
:101CA00009F052C0561313C0491311C0FE2CE110A5
:101CB0000EC08F7080618093D5010E94860DC60191
:101CC0000E94CF0C8091D501F801858358C1AB28C3
:101CD00031F05F3F31F481E04F3F19F403C081E000
:101CE00001C080E080FD03C081E08E2502C080E05D
:101CF00090E0F82FF170FF2E80FF1CC080919E01B4
:101D000020919F0136E0821709F417C190E0389FB7
:101D1000F001399FF00D1124E056FE4F61815613FA
:101D200006C06081461303C06281E61203C00196BB
:101D30008770E9CFFE2CEE2009F421C18091D501F6
:101D400081608093D5015AC0561306C0491304C060
:101D5000E11002C0F8019FC04D875E878D859E858A
:101D60000E94410D882379F1EE2069F12091D5017F
:101D7000822F82958F7090E0029774F08091D0014D
:101D80009091D10198878F831986BB86AA862C876C
:101D9000CE0107960E94CF0C86E0F801A0EDB1E0DD
:101DA00001900D928A95E1F70E94940D0E94860D94
:101DB0000DC0561729F14D875E878D859E850E943F
:101DC000410D81112CC0C8010E94CF0CFF24F39457
:101DD000D6C0282F207F69F77A2DB98AA88A6E2D60
:101DE00089890E94460D80ED91E00E94CF0C86E02B
:101DF000F60111928A95E9F70E94860DF12CBFC079
:101E00004913D9CFE110D7CFF8018583C8010E94CB
:101E1000CF0C86E0F60111928A95E9F7B0C0EE206A
:101E200091F22091D501822F82958F7090E00297D8
:101E30000CF4B2CF8091D0019091D1019A83898323
:101E40001B82BD82AC822E83CE010196A3CFE83CDB
:101E5000F10508F047C0FE2CEE2009F4B4CF56136C
:101E600030C049132EC02091D50120FD21C0822F02
:101E700082958F70482F50E041155105C9F0F80147
:101E800025834F30510541F08F5F982F9295907FB9
:101E9000822F8F70892B8583C8010E94CF0C86E02A
:101EA000F801A0EDB1E001900D928A95E1F742C0F2
:101EB00086E0F801A0EDB1E001900D928A95E1F77E
:101EC0005EC04D875E878D859E850E94410D811184
:101ED00063CF8091D50181608093D501C8010E94B4
:101EE000CF0C4DC07A2DB98AA88A6E2D89890E949F
:101EF000460D86E0F60111928A95E9F71BC0EE20A7
:101F000009F461CF4D875E878D859E850E94410DC6
:101F1000F82E882309F457CF86E0F801A0EDB1E050
:101F200001900D928A95E1F780ED91E00E945909A8
:101F30000E94940D0E94860D22C04D875E878D857C
:101F40009E850E94A712292F22952F70223028F4F7
:101F50009F7039F0811105C00BC0243028F49F70A8
:101F600049F4805E883020F0C8010E94CF0C9F2C7D
:101F7000F92C05C0F8019581907F99F7F9CF8F2D45
:101F800061960FB6F894DEBF0FBECDBFDF91CF9143
:101F90001F910F91FF90EF90DF90CF90BF90AF9087
:101FA0009F90089588EC90E008951F93CF93DF935E
:101FB000CDB7DEB72C970FB6F894DEBF0FBECDBFFE
:101FC0004F83588769877A878B879C87CE010796CE
:101FD0000E94000E8823D1F09F8188852A853B8549
:101FE000232B31F08F3F31F481E09F3F19F403C080
:101FF00081E001C080E080FD47C04F815885698540
:102000007A858B859C850E94550D3EC086E0FE0139
:102010003796DE01119601900D928A95E1F7FF81C6
:10202000E8856A857B856115710531F0EF3F31F4F4
:1020300081E0FF3F19F403C081E001C080E080FD32
:1020400023C020919F0130E0C90101968770992734
:1020500040919E0150E084179507F1F1F983EA83DE
:102060007D836C8396E0929FD001939FB00D1124E5
:10207000A056BE4FFE01319601900D929A95E1F760
:1020800080939F010E94650D16E080919E019091C2
:102090009F01891771F1189FC001112480569E4F2E
:1020A0000E94000E882329F1E0919E011E9FF001FD
:1020B0001124E056FE4F40815181628173818481F9
:1020C00095810E94550D80919E0190E00196877048
:1020D000992780939E01D9CF0E94190D10929F01DC
:1020E00010929E01E0EDF1E086E0DF011D928A95FD
:1020F000E9F72C960FB6F894DEBF0FBECDBFDF9187
:10210000CF911F910895EF92FF920F931F93CF935A
:10211000DF938C01892B09F46CC0F12CEE24E3943D
:10212000E8012196F8018491843740F4843008F066
:1021300051C0813081F0823019F15BC0853709F4DC
:1021400044C0A8F19CE7980F903708F052C08F77F1
:102150000E940E0A41C00E5F1F4FFE01849190E263
:10216000980F983050F48770FE2D01C0FF0F8A95AC
:10217000EAF78F2F0E94091314C00E945F092DC037
:102180000E5F1F4FFE01849190E2980F983060F42B
:102190008770FE2D01C0FF0F8A95EAF78F2F0E94EE
:1021A0000F130E94341319C00E940E0A16C00E5F4E
:1021B0001F4FFE01C491CC2381F08FE99FE001976E
:1021C000F1F700C00000C150F6CF0E5F1F4FFE01B7
:1021D000F49003C00E945F098E018F2D882309F4BB
:1021E0009FCFEFE9FFE03197F1F700C00000815089
:1021F000F5CFDF91CF911F910F91FF90EF90089550
:10220000089508950C9401110C9402110E94041178
:102210006093E9017093EA018093EB019093EC01E4
:102220000C94FF0C0C9406110F931F930091E9017D
:102230001091EA012091EB013091EC01602B712BA0
:10224000822B932B1F910F910C9406110F931F93C8
:102250000091E9011091EA012091EB013091EC012C
:1022600060237123822393231F910F910C940611F5
:102270000F931F930091E9011091EA012091EB0166
:102280003091EC0160277127822793271F910F91CE
:102290000C9406110C9401110E944A116093E501FF
:1022A0007093E6018093E7019093E8010C94FF0C92
:1022B00060E070E0CB010C944C110F931F9341E050
:1022C00050E060E070E08A019B0104C0000F111F24
:1022D000221F331F8A95D2F7C901B8011F910F91B0
:1022E0000C944C110F931F9341E050E060E070E0BC
:1022F00004C0440F551F661F771F8A95D2F780913F
:10230000E5019091E601A091E701B091E8018A0111
:102310009B01082B192B2A2B3B2BC901B8011F91BC
:102320000F910C944C110F931F9341E050E060E02B
:1023300070E004C0440F551F661F771F8A95D2F7BF
:1023400040955095609570958091E5019091E601DA
:10235000A091E701B091E8018A019B0108231923AC
:102360002A233B23C901B8011F910F910C944C11F2
:102370000F931F9341E050E060E070E004C0440F11
:10238000551F661F771F8A95D2F78091E5019091BE
:10239000E601A091E701B091E8018A019B010827BD
:1023A00019272A273B27C901B8011F910F910C94C7
:1023B0004C110F931F930091E5011091E6012091BC
:1023C000E7013091E801602B712B822B932B1F9139
:1023D0000F910C944C110F931F930091E5011091F4
:1023E000E6012091E7013091E80160237123822307
:1023F00093231F910F910C944C110F931F930091F5
:10240000E5011091E6012091E7013091E801602794
:102410007127822793271F910F910C944C110895D7
:10242000990F990F890FE82FE695E695E695877045
:1024300051E001C0550F8A95EAF785E0E89FF00169
:102440001124EA52FE4F20E030E070E04081CB01E1
:10245000022E02C0969587950A94E2F781708195C5
:1024600084278523842781932F5F3F4F25303105B3
:1024700069F70895990F990F890F682F66956695EA
:102480006695982F977085E0689FB001112440E011
:1024900050E080E0FB01E40FF51FEA52FE4F20817F
:1024A00030E0092E02C0369527950A94E2F7217094
:1024B0003327042E01C0220F0A94EAF7822B4F5FC4
:1024C0005F4F4530510531F70895BF92CF92DF92AB
:1024D000EF92FF920F931F93CF93DF938C01C090E5
:1024E000E501D090E601E090E701F090E8018091ED
:1024F000E9019091EA01A091EB01B091EC01C82AA9
:10250000D92AEA2AFB2ACFE1D0E0D701C6010C2E56
:1025100004C0B695A795979587950A94D2F780FD44
:1025200004C0219790F7B12C07C0BC2EB8018C2FA6
:102530000E94BA020197A9F38B2DDF91CF911F91D1
:102540000F91FF90EF90DF90CF90BF900895CF93C1
:10255000DF93EC010E946512BE010E94BA02DF9176
:10256000CF9108951F93CF93DF93EB0190919D013D
:10257000992321F0CB010E94A71213C0882349F0B0
:10258000CB010E946512182F682FCE010E941012F5
:1025900004C0CB010E943A12182FBE01812F0E9465
:1025A000BA02DF91CF911F9108958091ED01859539
:1025B0008595859508958091ED0187700895909196
:1025C000ED01977081E009F480E008958091110297
:1025D000089590911102892B80931102089580959E
:1025E0009091110289238093110208951092110293
:1025F000089590911002892B809310020895809580
:102600009091100289238093100208951092100275
:10261000089590910F02892B80930F020895809561
:1026200090910F02892380930F02089510920F0258
:1026300008958091EE01089508950C941C130C9454
:102640001D139091EE01981721F08093EE010C94E8
:102650001F1308958091EE01882329F01092EE0156
:1026600080E00C941F130895E0910001F0910101A6
:10267000809111028083E0910001F091010190812D
:1026800080911002892B8083E0910001F09101017B
:10269000908180910F02892B80838091EE018823A5
:1026A00081F0E0910001F09101019081892B8083FC
:1026B00080910001909101010E943E1481110E94BD
:1026C0002A1380910001909101010C941D080C9433
:1026D0001C1398E0899F90011124262B2093ED0173
:1026E0000E9472118091ED018595859585950C94D8
:1026F00067131092ED0180E00C9467132091ED01B7
:10270000809582238093ED01982F977079F430E0C3
:10271000482F082E000C550B2417350739F08595E6
:10272000859585950E9493110C947913089580E006
:1027300090E00E94A52121E08C3E9E4F09F020E010
:10274000822F089582E090E00C949D2183E090E038
:102750000C949D21CF9384E090E00E949D21C82F8E
:1027600081E290E00E949D212C2F30E0A901582B9E
:10277000CA01CF910895CF93C92F682F84E090E0CC
:102780000E94AB216C2F81E290E0CF910C94AB21A1
:10279000AB01BC018FE090E00C94BD21AB01BC010A
:1027A00083E190E00C94BD2160E070E0CB010C94DB
:1027B000CE1360E070E0CB010E94C8130C94D413D8
:1027C0006CEE7EEF80E090E00E94C92160E082E044
:1027D00090E00E94AB2160E083E090E00E94AB219A
:1027E0001092E9011092EA011092EB011092EC01B3
:1027F00060E084E090E00E94AB2160E081E290E044
:102800000E94AB2160E085E090E00E94AB2160E097
:1028100086E090E00E94AB216FEF87E090E00E949D
:10282000AB2140E050E0BA0188E090E00E94BD2179
:1028300060E08DE090E00E94AB2140E050E0BA0102
:1028400088E190E00E94BD2160E087E190E00E9475
:10285000AB2140E050E0BA018CE190E00E94BD2144
:1028600060E080E290E00E94AB210C94D9130C94BC
:10287000E013682F8EE090E00C94AB21FC013296BF
:1028800080911401882331F08091530287FF02C0A8
:102890009EE101C096E080E0915028F02191222332
:1028A000D9F38F5FF9CF0895662351F12091140178
:1028B0002223E9F02091530227FF19C0462F4695A5
:1028C000469546954E31E0F4677021E030E002C055
:1028D000220F331F6A95E2F7FC01E40FF11D82819C
:1028E00090E02823392381E0232B69F409C0FC01FF
:1028F000329608962191621729F0E817F907D1F767
:1029000080E0089581E008959C01FC0132969FEFDC
:1029100080E04191461789F09F3F19F4411101C0B1
:10292000982F8F5F8630A9F79F3F39F0F901E90FA3
:10293000F11D97FDFA956283089508959C012A5F21
:102940003F4FFC014281461301C01282019682175B
:102950009307B9F70895262F2695269526952E31AB
:1029600068F4FC01E20FF11D677021E030E001C066
:10297000220F6A95EAF78281282B22830895262F59
:102980002695269526952E3170F4FC01E20FF11D57
:10299000677021E030E001C0220F6A95EAF72095C8
:1029A000828128232283089520911401222329F073
:1029B0002091530227FD0C94AB140C9484142091A5
:1029C0001401222329F02091530227FD0C94BF14F7
:1029D0000C949E1420911401FC013296222331F0B4
:1029E0008091530287FF02C08EE101C086E0DF01C3
:1029F0001D928A95E9F7089508950C94FC140C949F
:102A0000FC14CF930E94FF140E9409050E94FD143C
:102A1000C0E08C2F0E94A904811104C0CF5FC53093
:102A2000C1F701C081E0CF9108950C94FC140C947F
:102A300015150E94171580915902843049F11092A2
:102A4000130220E488E190E00FB6F894A8958093F3
:102A500060000FBE2093600080E00E9444020E944C
:102A6000171583B7817F846083BF83B7816083BF7D
:102A70007894889583B78E7F83BF0FB6F894A89516
:102A800080916000886180936000109260000FBEAA
:102A900008950C94FC140E94190D0E9411080E94C4
:102AA00044020C9449151F920F920FB60F921124F5
:102AB0008F939F93AF93BF9380911302811113C0A3
:102AC00080914F0290915002A0915102B091520218
:102AD0004196A11DB11D80934F0290935002A09387
:102AE0005102B0935202BF91AF919F918F910F907D
:102AF0000FBE0F901F90189582E084BD93E095BDA6
:102B00009AEF97BD80936E0008952FB7F894809147
:102B10004F0290915002A0915102B09152022FBFEA
:102B200008959C014FB7F89480914F029091500204
:102B3000A0915102B09152024FBF821B930B089596
:102B400078941F920F920FB60F9211248F939F9338
:102B5000AF93BF9380914F0290915002A091510288
:102B6000B09152020196A11DB11D80934F02909326
:102B70005002A0935102B0935202BF91AF919F9126
:102B80008F910F900FBE0F901F90189581E080934A
:102B9000E00080E28093D8001092C9008FE19EE4AB
:102BA0000197F1F700C0000087E090EBDC01809313
:102BB000620290936302A0936402B09365029CE06A
:102BC00088E10FB6F894A895809360000FBE9093AB
:102BD0006000FFCF0E949713811102C00E9437143A
:102BE0000E94A213809312020E94AA13909354028F
:102BF000809353020E94A613682F70E080E090E05B
:102C00000E9412116091E5017091E6018091E70147
:102C10009091E8010C944A1180911A0280FF0BC038
:102C20006091070185E0689FB00111247595679553
:102C3000759567952BC081FF09C06091070185E0FC
:102C4000689FB00111247595679520C082FF07C069
:102C50006091070185E0689FB001112417C0909131
:102C600019029923D1F060910601961788F72091F7
:102C7000070185E0289F90011124929FA001939F56
:102C8000500D112470E0CA010E946F216038710557
:102C900040F46115710519F406C065E070E0862FF7
:102CA00008958FE7089581E0089580911A0280FFCA
:102CB00008C06091030170E07595679575956795FB
:102CC00021C081FF06C06091030170E07595679592
:102CD00019C082FF04C06091030170E010C09091A0
:102CE0001802992399F0609102019617A0F780913C
:102CF0000301899FC001112470E00E946F21603898
:102D0000710540F46115710519F406C061E070E0C9
:102D1000862F08958FE7089581E00895803F21F47C
:102D20000E940C16819504C0813F29F40E940C1664
:102D300080931E020895823F21F40E940C16819513
:102D400004C0833F29F40E940C1680931D0208954D
:102D5000893F19F40E94551605C08A3F31F40E943C
:102D60005516819580931F0208958B3F21F40E9490
:102D70005516819504C08C3F29F40E945516809306
:102D800020020895843F21F480911C02816017C0C5
:102D9000853F21F480911C02826011C0863F21F49E
:102DA00080911C0284600BC0873F21F480911C023B
:102DB000886005C0883F31F480911C028061809357
:102DC0001C0208958D3F21F480911A0281600BC08E
:102DD0008E3F21F480911A02826005C08F3F29F452
:102DE00080911A02846080931A020895803F39F41A
:102DF00080911E0287FF6AC010921E0267C0813F49
:102E000029F480911E021816BCF360C090911D0237
:102E1000823F29F497FF5AC010921D0257C0833F8A
:102E200019F41916CCF352C090911F02893F31F466
:102E300019160CF04BC010921F0248C08A3F19F4BB
:102E400097FF44C0F8CF8B3F39F48091200287FF71
:102E50003DC0109220023AC08C3F29F4809120029C
:102E60001816BCF333C0843F21F480911C028E7F7E
:102E700017C0853F21F480911C028D7F11C0863FD1
:102E800021F480911C028B7F0BC0873F21F480913D
:102E90001C02877F05C0883F31F480911C028F7E21
:102EA00080931C0213C08D3F21F480911A028E7F03
:102EB0000BC08E3F21F480911A028D7F05C08F3F99
:102EC00029F480911A028B7F80931A0280911D024F
:102ED000811106C080911E02811102C01092190258
:102EE00080911F02811106C080912002811102C0D1
:102EF0001092180208950E94851520911D0221113B
:102F000004C020911E02222321F090931702809387
:102F1000160220911F02211104C0209120022223B9
:102F200021F090931502809314028BE192E00C94AF
:102F30003708EF92FF920F931F93CF93DF9300D048
:102F400000D000D0CDB7DEB786E0EBE1F2E0DE01E5
:102F5000119601900D928A95E1F7E0901D02F09094
:102F60001E0200911F021091200210921D02109269
:102F70001E0210921F0210922002E11003C0FF20D7
:102F800009F45DC080911602909117020E9491157C
:102F9000AC0190911902992339F02091080130E099
:102FA0002417350758F04BC0209109018AE0289F6B
:102FB000900111242417350718F041C09F3F19F0E4
:102FC0009F5F90931902EE2061F00E940C161E1470
:102FD00014F09FEF01C091E0989F902D11249093E1
:102FE0001D02FF2061F00E940C161F1414F09FEFC9
:102FF00001C091E0989F902D112490931E02309172
:103000001D023323E1F020911E022223C1F045EB83
:103010003403C0011124992319F090931D0203C0B9
:1030200081E080931D0235EB2303C0011124992315
:1030300019F090931E0203C081E080931E020111DB
:1030400003C0112309F45DC0809114029091150210
:103050000E949115AC0190911802992339F02091AA
:10306000040130E02417350758F04BC020910501CA
:103070008AE0289F900111242417350718F041C0D9
:103080009F3F19F09F5F90931802002361F00E9408
:103090005516101614F09FEF01C091E0989F902DE7
:1030A000112490931F02112361F00E9455161116EE
:1030B00014F09FEF01C091E0989F902D1124909300
:1030C000200230911F023323E1F0209120022223BD
:1030D000C1F045EB3403C0011124992319F09093FA
:1030E0001F0203C081E080931F0235EB2303C00160
:1030F0001124992319F09093200203C081E080935A
:10310000200280911D0281110BC080911E0281114D
:1031100007C080911F02811103C08091200281119C
:103120000E947B17EB82FC820D831E8386E0FE01EA
:103130003196ABE1B2E001900D928A95E1F72696C7
:103140000FB6F894DEBF0FBECDBFDF91CF911F91B8
:103150000F91FF90EF900895EBE1F2E086E0DF0140
:103160001D928A95E9F71092190210921802109296
:103170001A020895833081F128F4813059F08230A9
:10318000D1F00895853009F449C0B8F1863009F4CA
:1031900056C0089580910901262F30E0280F311D77
:1031A0002F3F310524F4680F6093090108958FEFD4
:1031B00080930901089580910801262F30E0280F9F
:1031C000311D2F3F310524F4680F609308010895E5
:1031D0008FEF80930801089580910701262F30E03A
:1031E000280F311D2F3F310524F4680F609307012C
:1031F00008958FEF80930701089580910601262F8F
:1032000030E0280F311D2F3F310524F4680F609303
:10321000060108958FEF80930601089580910301C0
:10322000262F30E0280F311D2F3F310524F4680F81
:103230006093030108958FEF8093030108958091B7
:103240000201262F30E0280F311D2F3F310524F4D5
:10325000680F6093020108958FEF80930201089533
:10326000833011F128F4813049F0823091F00895D3
:10327000853081F120F18630C1F1089580910901F6
:10328000681720F4861B80930901089510920901A4
:10329000089580910801681720F4861B8093080127
:1032A000089510920801089580910701681720F48D
:1032B000861B80930701089510920701089580915D
:1032C0000601681720F4861B80930601089510926A
:1032D0000601089580910301681720F4861B8093EE
:1032E0000301089510920301089580910201681767
:1032F00020F4861B80930201089510920201089524
:103300000F931F9341E050E060E070E08A019B0161
:1033100004C0000F111F221F331F8A95D2F7C90165
:10332000B8010E9412111F910F910C94190D482F92
:1033300050E0FA013597EF33F10508F060C0EC5822
:10334000FF4F0C9483210E94371455C080911202C4
:10335000817F8E7F8093120281E080932202089504
:103360000E944E0248C080911202982F9095917051
:1033700090FB80F98093120291113DC0897F877F75
:1033800010C08091120281FB222720F991E0922740
:1033900090FB81F980931202992369F180911202C6
:1033A00081608093120227C08091120282FB222743
:1033B00020F991E0922790FB82F9ECCF80911202E4
:1033C00083FB222720F991E0922790FB83F9E2CF3B
:1033D0000E94190D8091530287FB222720F991E06A
:1033E000922790FB87F98093530205C0895301C04F
:1033F0008D510E94801981E0089580E0FACF80E02D
:10340000089580E008950C94011A8E518A3030F4AA
:10341000E82FF0E0E058FE4F8081089580E00895A5
:10342000CF93C82F80912202813051F018F0823062
:1034300099F17DC00E94E612823209F07AC004C080
:103440000E94E612823261F48C2F0E94031A8111CD
:1034500004C08C2F0E9497191DC081E090E01AC013
:103460008C2F0E94011A811114C0C43179F048F4E4
:10347000CB3079F0C03109F060C082E08093220245
:1034800008C0C93219F0C83321F057C01092220287
:1034900054C081E0817053C0C93289F118F5C4313C
:1034A00071F1B0F4C73009F046C08EE18093090194
:1034B00082E3809308018AE08093070184E180938E
:1034C000060188E08093030188E28093020133C003
:1034D00082EE8C0F863078F58C2F0E94051A80932F
:1034E000210229C0CE34E9F020F4CB3421F56AE082
:1034F00013C0C13579F0C235F1F461E00DC080919F
:103500002102882319F01092210215C081E08093D6
:10351000220215C061E006C0809121020E94BA1803
:103520000AC06AE0809121020E94301904C0109202
:10353000220280E004C081E002C080E0ABCFCF91E6
:103540000895809143020895CF93DF9300D01F9296
:10355000CDB7DEB790915902943019F589837B83FA
:103560006A8382E08093E9008FEF9091E8008150B8
:1035700095FD06C095ED9A95F1F700008111F5CF04
:103580008091E80085FF0DC040E050E063E070E00E
:10359000CE0101960E94D11C8091E8008E77809325
:1035A000E8000F900F900F90DF91CF910895BC012C
:1035B00084E00C94A41ABC0183E00C94A41A22E0C9
:1035C0002093E9002FEF3091E800215035FD06C02F
:1035D00035ED3A95F1F700002111F5CF2091E80083
:1035E00025FF0BC040E050E066E070E00E94D11C77
:1035F0008091E8008E778093E8000895CF93DF9361
:1036000020911401222339F02091530227FF03C097
:1036100060E222E002C068E021E02093E9002FEFA1
:103620003091E800215035FD06C035ED3A95F1F7AF
:1036300000002111F5CF2091E80025FF1DC0EC010D
:1036400080911401811105C040E050E068E070E015
:1036500003C070E040E050E0CE010E94D11C809198
:10366000E8008E778093E80080E2FE01A3E2B2E0FA
:1036700001900D928A95E1F7DF91CF9108958091A5
:103680005802811109C00E94621E0E94BF1E8091D3
:10369000E20084608093E200089510925802089539
:1036A000089508950C944B1542E061EC81E00E946E
:1036B000DB1D42E261EC82E00C94DB1D80915B0239
:1036C000833009F460C030F4813071F0823009F445
:1036D00099C008958A3009F485C08B3009F46BC015
:1036E000893009F0A7C020C080915A02813A09F0C0
:1036F000A1C08091E800877F8093E80080915E02FE
:1037000090915F02892B21F460E283E292E003C092
:1037100060E080E090E070E00E941C1D8091E80075
:103720008B778093E800089580915A02813209F0E6
:1037300081C080915E0290915F02029708F07AC08A
:103740008091E800877F8093E8008091E80082FD07
:1037500005C0809159028111F8CF6CC02091F3000F
:103760008091F20090E0922B029729F48091F10071
:103770008B7F813021F48091F1008093430280910E
:10378000E8008B7753C080915A02813A09F052C009
:1037900080915E0290915F02892B09F04BC080916D
:1037A000E800877F8093E8008091E80080FFFCCFED
:1037B0008091140136C080915A028132D9F58091EE
:1037C0005E0290915F02892BA9F58091E800877FC6
:1037D0008093E8000E94101E80915C028093140187
:1037E0000C94190D80915A02813221F58091E800E4
:1037F000877F8093E8000E94101E80915D02809375
:103800004402089580915A02813AA1F48091E8001F
:10381000877F8093E8008091E80080FFFCCF809153
:1038200044028093F1008091E8008E778093E80055
:103830000C94101E089584B7877F84BF0FB6F89448
:10384000A89580916000886180936000109260006C
:103850000FBE90E080E80FB6F894809361009093DB
:1038600061000FBE0E9481080E94621E0E94BF1E5E
:103870008091E20084608093E20078940E94542159
:103880000E948B088AE091E00E940C088091590206
:10389000853069F40E941915809157028823B1F38D
:1038A0000E940115882391F30E94BB1CEFCF0E9458
:1038B0009308ECCF0C945C1C292F3327233031055F
:1038C000C9F060F42130310581F02230310509F072
:1038D0004AC08BE390E022EE31E049C0213231054D
:1038E00011F12232310579F13EC082E190E02DE103
:1038F00032E03DC099278130910561F040F082307F
:10390000910559F0039779F5E2EAF1E008C0EEED90
:10391000F1E005C0E6EBF1E002C0E8EAF1E08491F5
:1039200090E09F0124C06115710541F0613071057F
:10393000D1F489E090E02DE032E019C089E090E018
:1039400024EF31E014C06115710541F0613071055B
:1039500051F48CEB90E02FE232E009C080E490E07B
:103960002BEE32E004C080E090E020E030E0FA018D
:1039700031832083089580E189BD82E189BD09B446
:1039800000FEFDCF8091D8008F7D8093D80080917C
:10399000E00082608093E0008091E00081FDFCCF38
:1039A0000895CF92DF92EF92FF920F931F93CF93E0
:1039B000DF93EC018B017A010E942F1E811133C02D
:1039C000E114F10439F0F70180819181081B190B92
:1039D000C80FD91FC12CD12C0115110519F18091E7
:1039E000E80085FD16C08091E8008E778093E8009E
:1039F000E114F10449F0F70180819181C80ED91ECC
:103A0000D182C08285E00FC00E942F1E882321F33F
:103A10000AC089918093F10001501109FFEFCF1A7C
:103A2000DF0ADACF80E0DF91CF911F910F91FF90F5
:103A3000EF90DF90CF900895209160023091610265
:103A40002617370748F06115710539F42091E80011
:103A50002E772093E80001C0B901FC0120E0611538
:103A6000710579F1809159028823F1F18530F1F1E6
:103A70008091E80083FD3CC08091E80082FD2EC06B
:103A80008091E80080FFEBCF2091F3008091F2005D
:103A900090E0922B6115710551F08830910538F452
:103AA00021912093F100615071090196F3CF21E03B
:103AB000089709F020E08091E8008E778093E80075
:103AC000CECF2111CFCF0AC080915902882361F057
:103AD000853061F08091E80083FD0AC08091E800A4
:103AE00082FFF2CF80E0089582E0089583E0089598
:103AF00081E0089520916002309161022617370716
:103B000048F06115710539F42091E8002E77209373
:103B1000E80001C0B901FC0120E06115710591F1D7
:103B200080915902882309F440C0853009F43FC0D0
:103B30008091E80083FD3DC08091E80082FD2FC0A8
:103B40008091E80080FFE9CF2091F3008091F2009E
:103B500090E0922B6115710559F08830910540F481
:103B600024912093F1003196615071090196F2CFB2
:103B700021E0089709F020E08091E8008E7780939B
:103B8000E800CBCF2111CCCF0AC080915902882305
:103B900061F0853061F08091E80083FD0AC080917A
:103BA000E80082FFF2CF80E0089582E0089583E08C
:103BB000089581E00895982F973068F59093E90073
:103BC000981739F07091EC002091ED005091F000C1
:103BD00003C0242F762F50E021FD02C09F5FECCF61
:103BE0003091EB003E7F3093EB003091ED003D7F54
:103BF0003093ED003091EB0031603093EB00709327
:103C0000EC002093ED005093F0002091EE0027FD92
:103C1000E5CF80E008958F708093E90081E00895FA
:103C200080915A0287FF11C08091E80082FD05C093
:103C3000809159028111F8CF11C08091E8008B77F3
:103C40000BC080915902882349F08091E80080FFE1
:103C5000F8CF8091E8008E778093E8000895209156
:103C6000E4003091E50095E64091EC00842F8170EE
:103C700040FF23C08091E80080FD1DC08091590263
:103C8000882399F0853099F08091EB0085FD11C073
:103C90004091E4005091E5002417350729F3915035
:103CA00011F09A01E1CF84E0089582E0089583E065
:103CB000089581E0089580E008954091E80042FF72
:103CC000DDCF08950E94D01E0E94D81EE0EEF0E0E5
:103CD000808181608083E8EDF0E080818F77808350
:103CE00019BCA7EDB0E08C918E7F8C9380818F7E84
:103CF00080831092580208950F931F93CF93DF9300
:103D00000E94D01E0E94D81EC8EDD0E088818F7717
:103D1000888388818068888388818F7D888319BCA7
:103D200010925902109255021092570210925602A8
:103D300000EE10E0F80180818B7F808388818160B4
:103D4000888342E060E080E00E94DB1DE1EEF0E06D
:103D500080818E7F8083E2EEF0E0808181608083CD
:103D6000808188608083F80180818E7F8083888154
:103D700080618883DF91CF911F910F910895E8EDC5
:103D8000F0E080818F7E8083E7EDF0E080818160CC
:103D9000808384E082BF81E0809358020C947C1E73
:103DA000E8EDF0E080818E7F80831092E20008953C
:103DB0001092DA001092E10008951F920F920FB650
:103DC0000F9211242F933F934F935F936F937F93A1
:103DD0008F939F93AF93BF93EF93FF938091E100F5
:103DE00082FF0BC08091E20082FF07C08091E1005A
:103DF0008B7F8093E1000E9453218091DA0080FF45
:103E00001FC08091D80080FF1BC08091DA008E7F98
:103E10008093DA008091D90080FF0DC080E189BDD8
:103E200082E189BD09B400FEFDCF81E08093590293
:103E30000E943F1B05C019BC109259020E944D1BE5
:103E40008091E10080FF19C08091E20080FF15C0E1
:103E50008091E2008E7F8093E2008091E200806199
:103E60008093E2008091D80080628093D80019BCD2
:103E700085E0809359020E94511B8091E10084FFEC
:103E800030C08091E20084FF2CC080E189BD82E1D6
:103E900089BD09B400FEFDCF8091D8008F7D80934D
:103EA000D8008091E1008F7E8093E1008091E20054
:103EB0008F7E8093E2008091E20081608093E20037
:103EC00080915502882311F084E007C08091E300BF
:103ED00087FD02C081E001C083E0809359020E9407
:103EE000521B8091E10083FF29C08091E20083FF93
:103EF00025C08091E100877F8093E10082E080937C
:103F00005902109255028091E1008E7F8093E1006A
:103F10008091E2008E7F8093E2008091E2008061D8
:103F20008093E20042E060E080E00E94DB1D80912F
:103F3000F00088608093F0000E94501BFF91EF9189
:103F4000BF91AF919F918F917F916F915F914F91B1
:103F50003F912F910F900FBE0F901F9018951F92B9
:103F60000F920FB60F9211242F933F934F935F93AD
:103F70006F937F938F939F93AF93BF93CF93DF9371
:103F8000EF93FF93C091E900CF708091EC00D82FA0
:103F9000D17080FDD0E81092E9008091F000877F19
:103FA0008093F00078940E94F31F1092E9008091B2
:103FB000F00088608093F000CD2BCF70C093E900B3
:103FC000FF91EF91DF91CF91BF91AF919F918F9131
:103FD0007F916F915F914F913F912F910F900FBE05
:103FE0000F901F9018951F93CF93DF93CDB7DEB737
:103FF000AA970FB6F894DEBF0FBECDBFEAE5F2E098
:104000008091F100819322E0E236F207C9F70E9425
:104010005E1B8091E80083FF2EC180915A0290912F
:104020005B02492F50E04A30510508F024C1FA01E3
:10403000ED54FF4F0C948321803821F0823809F031
:104040001AC108C08091560290915702992389F0B5
:1040500082600FC080915E028F70873008F00BC1C4
:104060008093E9008091EB0085FB882780F910920E
:10407000E9009091E800977F9093E8008093F10029
:104080001092F100D1C0282F2D7F09F0F4C08823B1
:1040900019F0823061F0EFC080915C02813009F04C
:1040A000EAC0933009F080E0809357022EC08091DF
:1040B0005C0281112AC080915E028F702FEF280F61
:1040C000263008F0D8C08093E9002091EB0020FF53
:1040D0001CC0933021F48091EB00806214C0909159
:1040E000EB0090619093EB0021E030E0A90102C069
:1040F000440F551F8A95E2F74093EA001092EA00B8
:104100008091EB0088608093EB001092E900809131
:10411000E800877F8093E8000E94101EACC08111E8
:10412000AAC010915C021F778091E3008078812BF8
:104130008093E3008091E800877F8093E8000E94ED
:10414000101E8091E80080FFFCCF8091E300806822
:104150008093E300111102C082E001C083E08093EC
:10416000590289C08058823008F085C080915C0275
:1041700090915D028C3D53E0950779F583E08A8349
:104180008AE289834FB7F894DE01139620E03EE07F
:1041900051E2E32FF0E050935700E49120FF03C079
:1041A000E295EF703F5FEF708E2F90E0EA3010F0F5
:1041B000C79601C0C0968D939D932F5F243149F718
:1041C0004FBF8091E800877F8093E8006AE270E04B
:1041D000CE0101960E941C1D16C060915E02709176
:1041E0005F02AE014F5F5F4F0E945A1CBC01892BDA
:1041F00009F441C09091E800977F9093E80089818D
:104200009A810E947A1D8091E8008B778093E80064
:1042100032C0803881F58091E800877F8093E80084
:10422000809155028093F1008091E8008E7772CFE3
:10423000811121C080915C0290915D0299270297C3
:10424000D4F48091E800877F8093E80080915C023D
:10425000809355020E94101E80915502811106C064
:104260008091E30087FD02C081E001C084E080937B
:1042700059020E94541B8091E80083FF0AC080917C
:10428000E800877F8093E8008091EB008062809354
:10429000EB00AA960FB6F894DEBF0FBECDBFDF913C
:1042A000CF911F9108950895CF938091590288234B
:1042B000A1F0C091E900CF709091EC00892F81703E
:1042C00090FD80E8C82B1092E9008091E80083FD02
:1042D0000E94F31FCF70C093E900CF91089597FB20
:1042E000072E16F4009407D077FD09D00E9489218B
:1042F00007FC05D03EF4909581959F4F08957095E9
:1043000061957F4F0895EE0FFF1F0590F491E02D0A
:104310000994AA1BBB1B51E107C0AA1FBB1FA6170C
:10432000B70710F0A61BB70B881F991F5A95A9F75E
:1043300080959095BC01CD010895F999FECF92BD6D
:1043400081BDF89A992780B50895A8E1B0E042E0D0
:1043500050E00C94D121262FF999FECF92BD81BD5A
:10436000F89A019700B4021639F01FBA20BD0FB6B3
:10437000F894FA9AF99A0FBE08950396272F0E948F
:10438000AC210E94AB21252F0E94AC21242F0C943C
:10439000AC210196272F0E94AC210C94AB21DC01AB
:1043A000CB01FC01F999FECF06C0F2BDE1BDF89A40
:1043B000319600B40D9241505040B8F70895F894EA
:0243C000FFCF2D
:1043C200EF012808641E140A321EA11AFE1ADF1A0F
:1043D200DB1AD71A01E200E900EA00B500B600B71D
:1043E20000CD008301CC008A0192019401210223B5
:1043F2000224022502260227022A02B300B4006F19
:10440200007000818283F4339735946636C634E2B5
:1044120000E900EA00B500B600B700CD008301CC88
:10442200008A01920194012102230224022502261C
:104432000227022A02B300B4006F00700081828357
:0A4442000102030405060708090043
:00000001FF
